{
	"data": {
		"bytecode": {
			"linkReferences": {
				"remix_tests.sol": {
					"Assert": [
						{
							"length": 20,
							"start": 403
						},
						{
							"length": 20,
							"start": 612
						},
						{
							"length": 20,
							"start": 714
						},
						{
							"length": 20,
							"start": 959
						},
						{
							"length": 20,
							"start": 1272
						},
						{
							"length": 20,
							"start": 1387
						},
						{
							"length": 20,
							"start": 1706
						},
						{
							"length": 20,
							"start": 1905
						}
					]
				}
			},
			"object": "6080604052348015600e575f5ffd5b5061103f8061001c5f395ff3fe608060405234801561000f575f5ffd5b5060043610610055575f3560e01c806301ccaa2c146100595780634b91d1f9146100635780636cd569541461006b5780637fea0d4b146100735780638b4637681461007b575b5f5ffd5b610061610083565b005b6100616102d0565b610061610412565b610061610571565b6100616105b8565b5f546040516344e3e6ad60e01b8152606560048201526060602482015260066064820152653432b2b937b760d11b6084820152600160448201526001600160a01b03909116906344e3e6ad9060a4016020604051808303815f875af192505050801561010c575060408051601f3d908101601f19168201909252610109918101906107c5565b60015b61026a576101186107dc565b806308c379a0036101d8575061012c61082e565b8061013757506101da565b604080516339df137f60e01b81525f6004820152602481019190915260126044820152713330b4b632b2103bb4ba34103932b0b9b7b760711b606482015273__$acbfb1c35000d78352310b16a054a6b106$__906339df137f906084015b602060405180830381865af41580156101b0573d5f5f3e3d5ffd5b505050506040513d601f19601f820116820180604052508101906101d491906108b2565b5050565b505b3d808015610203576040519150601f19603f3d011682016040523d82523d5f602084013e610208565b606091505b50604080516339df137f60e01b81525f60048201526024810191909152601160448201527019985a5b1959081d5b995e1c1958dd1959607a1b606482015273__$acbfb1c35000d78352310b16a054a6b106$__906339df137f90608401610195565b60405163055e6bcb60e51b8152600481018290526065602482015260606044820152601060648201526f2bb937b733903937b636273ab6b132b960811b608482015273__$acbfb1c35000d78352310b16a054a6b106$__9063abcd79609060a401610195565b604051606660248201526060604482015260096084820152686475706c696361746560b81b60a4820152600a60648201525f9060c40160408051601f198184030181529181526020820180516001600160e01b03166344e3e6ad60e01b1790525f805491519293509182916001600160a01b0316906103509085906108d8565b5f604051808303815f865af19150503d805f8114610389576040519150601f19603f3d011682016040523d82523d5f602084013e61038e565b606091505b5060405163767392b360e01b8152919350915073__$acbfb1c35000d78352310b16a054a6b106$__9063767392b3906103cd9085905f906004016108ee565b602060405180830381865af41580156103e8573d5f5f3e3d5ffd5b505050506040513d601f19601f8201168201806040525081019061040c91906108b2565b50505050565b5f546040516344e3e6ad60e01b81526065600482015260606024820152600d60648201526c1cd958dbdb9914dd1d59195b9d609a1b6084820152600b60448201526001600160a01b03909116906344e3e6ad9060a4016020604051808303815f875af19250505080156104a2575060408051601f3d908101601f1916820190925261049f918101906107c5565b60015b610504576104ae6107dc565b806308c379a0036101d857506104c261082e565b806104cd57506101da565b604051637461658b60e11b815273__$acbfb1c35000d78352310b16a054a6b106$__9063e8c2cb1690610195908490600401610935565b604080516339df137f60e01b81525f60048201526024810191909152601c60448201527f6d6574686f6420657865637574696f6e2073686f756c64206661696c00000000606482015273__$acbfb1c35000d78352310b16a054a6b106$__906339df137f90608401610195565b60405161057d906107b8565b604051809103905ff080158015610596573d5f5f3e3d5ffd5b505f80546001600160a01b0319166001600160a01b0392909216919091179055565b6040516066602482015260606044820152600c60848201526b199a5c9cdd14dd1d59195b9d60a21b60a4820152600a60648201525f9060c40160408051601f198184030181529181526020820180516001600160e01b03166344e3e6ad60e01b1790525f805491519293509182916001600160a01b03169061063b9085906108d8565b5f604051808303815f865af19150503d805f8114610674576040519150601f19603f3d011682016040523d82523d5f602084013e610679565b606091505b5060405163767392b360e01b8152919350915073__$acbfb1c35000d78352310b16a054a6b106$__9063767392b3906106b99085906001906004016108ee565b602060405180830381865af41580156106d4573d5f5f3e3d5ffd5b505050506040513d601f19601f820116820180604052508101906106f891906108b2565b505f8180602001905181019061070e91906107c5565b60405163055e6bcb60e51b8152600481018290526066602482015260606044820152601060648201526f3bb937b733903937b636273ab6b132b960811b608482015290915073__$acbfb1c35000d78352310b16a054a6b106$__9063abcd79609060a401602060405180830381865af415801561078d573d5f5f3e3d5ffd5b505050506040513d601f19601f820116820180604052508101906107b191906108b2565b5050505050565b61062b806109df83390190565b5f602082840312156107d5575f5ffd5b5051919050565b5f60033d11156107f25760045f5f3e505f5160e01c5b90565b601f8201601f1916810167ffffffffffffffff8111828210171561082757634e487b7160e01b5f52604160045260245ffd5b6040525050565b5f60443d101561083b5790565b6040513d600319016004823e80513d602482011167ffffffffffffffff8211171561086557505090565b808201805167ffffffffffffffff811115610881575050505090565b3d840160031901828201602001111561089b575050505090565b6108aa602082850101856107f5565b509392505050565b5f602082840312156108c2575f5ffd5b815180151581146108d1575f5ffd5b9392505050565b5f82518060208501845e5f920191825250919050565b911515825215156020820152606060408201819052601e908201527f657865637574696f6e2073686f756c64206265207375636365737366756c0000608082015260a00190565b606081525f82518060608401528060208501608085015e5f60808285010152601f19601f82011683019050608083820301806020850152601960808301527f526f6c6c206e756d626572206e6f7420617661696c61626c650000000000000060a083015260408101604085015250601d60c08201527f6661696c6564207769746820756e657870656374656420726561736f6e00000060e082015261010081019150509291505056fe6080604052348015600e575f5ffd5b5061060f8061001c5f395ff3fe608060405234801561000f575f5ffd5b506004361061003f575f3560e01c806344e3e6ad146100435780639ac4387614610069578063f207564e14610089575b5f5ffd5b610056610051366004610331565b6100aa565b6040519081526020015b60405180910390f35b61007c6100773660046103f7565b6101dd565b604051610060919061043c565b61009c6100973660046103f7565b61027c565b604051610060929190610455565b5f5f821180156100bb5750600c8211155b6100fc5760405162461bcd60e51b815260206004820152600d60248201526c696e76616c696420636c61737360981b60448201526064015b60405180910390fd5b5f848152602081905260409020600101541561015a5760405162461bcd60e51b815260206004820152601960248201527f526f6c6c206e756d626572206e6f7420617661696c61626c650000000000000060448201526064016100f3565b60408051808201825284815260208082018590525f87815290819052919091208151829190819061018b90826104fa565b50602082015181600101559050507f837102bfa3fa1437554712a20c1c1d67b6689aa3f9739b4fb7cb2d1eab97a2b98484426040516101cc939291906105b5565b60405180910390a150929392505050565b5f8181526020819052604090208054606091906101f990610476565b80601f016020809104026020016040519081016040528092919081815260200182805461022590610476565b80156102705780601f1061024757610100808354040283529160200191610270565b820191905f5260205f20905b81548152906001019060200180831161025357829003601f168201915b50505050509050919050565b5f6020819052908152604090208054819061029690610476565b80601f01602080910402602001604051908101604052809291908181526020018280546102c290610476565b801561030d5780601f106102e45761010080835404028352916020019161030d565b820191905f5260205f20905b8154815290600101906020018083116102f057829003601f168201915b5050505050908060010154905082565b634e487b7160e01b5f52604160045260245ffd5b5f5f5f60608486031215610343575f5ffd5b83359250602084013567ffffffffffffffff811115610360575f5ffd5b8401601f81018613610370575f5ffd5b803567ffffffffffffffff81111561038a5761038a61031d565b604051601f8201601f19908116603f0116810167ffffffffffffffff811182821017156103b9576103b961031d565b6040528181528282016020018810156103d0575f5ffd5b816020840160208301375f9181016020019190915293969395505050506040919091013590565b5f60208284031215610407575f5ffd5b5035919050565b5f81518084528060208401602086015e5f602082860101526020601f19601f83011685010191505092915050565b602081525f61044e602083018461040e565b9392505050565b604081525f610467604083018561040e565b90508260208301529392505050565b600181811c9082168061048a57607f821691505b6020821081036104a857634e487b7160e01b5f52602260045260245ffd5b50919050565b601f8211156104f557805f5260205f20601f840160051c810160208510156104d35750805b601f840160051c820191505b818110156104f2575f81556001016104df565b50505b505050565b815167ffffffffffffffff8111156105145761051461031d565b610528816105228454610476565b846104ae565b6020601f82116001811461055a575f83156105435750848201515b5f19600385901b1c1916600184901b1784556104f2565b5f84815260208120601f198516915b828110156105895787850151825560209485019460019092019101610569565b50848210156105a657868401515f19600387901b60f8161c191681555b50505050600190811b01905550565b606081525f6105c7606083018661040e565b6020830194909452506040015291905056fea26469706673582212202de4667c43a00011ecf703d0e62f0be60efe8dba27de51cea040a915a720ace864736f6c634300081c0033a26469706673582212203f56de8b8892a620196489ad0297b6a7576df94f456db13dc470e66038d2f6d364736f6c634300081c0033",
			"opcodes": "PUSH1 0x80 PUSH1 0x40 MSTORE CALLVALUE DUP1 ISZERO PUSH1 0xE JUMPI PUSH0 PUSH0 REVERT JUMPDEST POP PUSH2 0x103F DUP1 PUSH2 0x1C PUSH0 CODECOPY PUSH0 RETURN INVALID PUSH1 0x80 PUSH1 0x40 MSTORE CALLVALUE DUP1 ISZERO PUSH2 0xF JUMPI PUSH0 PUSH0 REVERT JUMPDEST POP PUSH1 0x4 CALLDATASIZE LT PUSH2 0x55 JUMPI PUSH0 CALLDATALOAD PUSH1 0xE0 SHR DUP1 PUSH4 0x1CCAA2C EQ PUSH2 0x59 JUMPI DUP1 PUSH4 0x4B91D1F9 EQ PUSH2 0x63 JUMPI DUP1 PUSH4 0x6CD56954 EQ PUSH2 0x6B JUMPI DUP1 PUSH4 0x7FEA0D4B EQ PUSH2 0x73 JUMPI DUP1 PUSH4 0x8B463768 EQ PUSH2 0x7B JUMPI JUMPDEST PUSH0 PUSH0 REVERT JUMPDEST PUSH2 0x61 PUSH2 0x83 JUMP JUMPDEST STOP JUMPDEST PUSH2 0x61 PUSH2 0x2D0 JUMP JUMPDEST PUSH2 0x61 PUSH2 0x412 JUMP JUMPDEST PUSH2 0x61 PUSH2 0x571 JUMP JUMPDEST PUSH2 0x61 PUSH2 0x5B8 JUMP JUMPDEST PUSH0 SLOAD PUSH1 0x40 MLOAD PUSH4 0x44E3E6AD PUSH1 0xE0 SHL DUP2 MSTORE PUSH1 0x65 PUSH1 0x4 DUP3 ADD MSTORE PUSH1 0x60 PUSH1 0x24 DUP3 ADD MSTORE PUSH1 0x6 PUSH1 0x64 DUP3 ADD MSTORE PUSH6 0x3432B2B937B7 PUSH1 0xD1 SHL PUSH1 0x84 DUP3 ADD MSTORE PUSH1 0x1 PUSH1 0x44 DUP3 ADD MSTORE PUSH1 0x1 PUSH1 0x1 PUSH1 0xA0 SHL SUB SWAP1 SWAP2 AND SWAP1 PUSH4 0x44E3E6AD SWAP1 PUSH1 0xA4 ADD PUSH1 0x20 PUSH1 0x40 MLOAD DUP1 DUP4 SUB DUP2 PUSH0 DUP8 GAS CALL SWAP3 POP POP POP DUP1 ISZERO PUSH2 0x10C JUMPI POP PUSH1 0x40 DUP1 MLOAD PUSH1 0x1F RETURNDATASIZE SWAP1 DUP2 ADD PUSH1 0x1F NOT AND DUP3 ADD SWAP1 SWAP3 MSTORE PUSH2 0x109 SWAP2 DUP2 ADD SWAP1 PUSH2 0x7C5 JUMP JUMPDEST PUSH1 0x1 JUMPDEST PUSH2 0x26A JUMPI PUSH2 0x118 PUSH2 0x7DC JUMP JUMPDEST DUP1 PUSH4 0x8C379A0 SUB PUSH2 0x1D8 JUMPI POP PUSH2 0x12C PUSH2 0x82E JUMP JUMPDEST DUP1 PUSH2 0x137 JUMPI POP PUSH2 0x1DA JUMP JUMPDEST PUSH1 0x40 DUP1 MLOAD PUSH4 0x39DF137F PUSH1 0xE0 SHL DUP2 MSTORE PUSH0 PUSH1 0x4 DUP3 ADD MSTORE PUSH1 0x24 DUP2 ADD SWAP2 SWAP1 SWAP2 MSTORE PUSH1 0x12 PUSH1 0x44 DUP3 ADD MSTORE PUSH18 0x3330B4B632B2103BB4BA34103932B0B9B7B7 PUSH1 0x71 SHL PUSH1 0x64 DUP3 ADD MSTORE PUSH20 0x0 SWAP1 PUSH4 0x39DF137F SWAP1 PUSH1 0x84 ADD JUMPDEST PUSH1 0x20 PUSH1 0x40 MLOAD DUP1 DUP4 SUB DUP2 DUP7 GAS DELEGATECALL ISZERO DUP1 ISZERO PUSH2 0x1B0 JUMPI RETURNDATASIZE PUSH0 PUSH0 RETURNDATACOPY RETURNDATASIZE PUSH0 REVERT JUMPDEST POP POP POP POP PUSH1 0x40 MLOAD RETURNDATASIZE PUSH1 0x1F NOT PUSH1 0x1F DUP3 ADD AND DUP3 ADD DUP1 PUSH1 0x40 MSTORE POP DUP2 ADD SWAP1 PUSH2 0x1D4 SWAP2 SWAP1 PUSH2 0x8B2 JUMP JUMPDEST POP POP JUMP JUMPDEST POP JUMPDEST RETURNDATASIZE DUP1 DUP1 ISZERO PUSH2 0x203 JUMPI PUSH1 0x40 MLOAD SWAP2 POP PUSH1 0x1F NOT PUSH1 0x3F RETURNDATASIZE ADD AND DUP3 ADD PUSH1 0x40 MSTORE RETURNDATASIZE DUP3 MSTORE RETURNDATASIZE PUSH0 PUSH1 0x20 DUP5 ADD RETURNDATACOPY PUSH2 0x208 JUMP JUMPDEST PUSH1 0x60 SWAP2 POP JUMPDEST POP PUSH1 0x40 DUP1 MLOAD PUSH4 0x39DF137F PUSH1 0xE0 SHL DUP2 MSTORE PUSH0 PUSH1 0x4 DUP3 ADD MSTORE PUSH1 0x24 DUP2 ADD SWAP2 SWAP1 SWAP2 MSTORE PUSH1 0x11 PUSH1 0x44 DUP3 ADD MSTORE PUSH17 0x19985A5B1959081D5B995E1C1958DD1959 PUSH1 0x7A SHL PUSH1 0x64 DUP3 ADD MSTORE PUSH20 0x0 SWAP1 PUSH4 0x39DF137F SWAP1 PUSH1 0x84 ADD PUSH2 0x195 JUMP JUMPDEST PUSH1 0x40 MLOAD PUSH4 0x55E6BCB PUSH1 0xE5 SHL DUP2 MSTORE PUSH1 0x4 DUP2 ADD DUP3 SWAP1 MSTORE PUSH1 0x65 PUSH1 0x24 DUP3 ADD MSTORE PUSH1 0x60 PUSH1 0x44 DUP3 ADD MSTORE PUSH1 0x10 PUSH1 0x64 DUP3 ADD MSTORE PUSH16 0x2BB937B733903937B636273AB6B132B9 PUSH1 0x81 SHL PUSH1 0x84 DUP3 ADD MSTORE PUSH20 0x0 SWAP1 PUSH4 0xABCD7960 SWAP1 PUSH1 0xA4 ADD PUSH2 0x195 JUMP JUMPDEST PUSH1 0x40 MLOAD PUSH1 0x66 PUSH1 0x24 DUP3 ADD MSTORE PUSH1 0x60 PUSH1 0x44 DUP3 ADD MSTORE PUSH1 0x9 PUSH1 0x84 DUP3 ADD MSTORE PUSH9 0x6475706C6963617465 PUSH1 0xB8 SHL PUSH1 0xA4 DUP3 ADD MSTORE PUSH1 0xA PUSH1 0x64 DUP3 ADD MSTORE PUSH0 SWAP1 PUSH1 0xC4 ADD PUSH1 0x40 DUP1 MLOAD PUSH1 0x1F NOT DUP2 DUP5 SUB ADD DUP2 MSTORE SWAP2 DUP2 MSTORE PUSH1 0x20 DUP3 ADD DUP1 MLOAD PUSH1 0x1 PUSH1 0x1 PUSH1 0xE0 SHL SUB AND PUSH4 0x44E3E6AD PUSH1 0xE0 SHL OR SWAP1 MSTORE PUSH0 DUP1 SLOAD SWAP2 MLOAD SWAP3 SWAP4 POP SWAP2 DUP3 SWAP2 PUSH1 0x1 PUSH1 0x1 PUSH1 0xA0 SHL SUB AND SWAP1 PUSH2 0x350 SWAP1 DUP6 SWAP1 PUSH2 0x8D8 JUMP JUMPDEST PUSH0 PUSH1 0x40 MLOAD DUP1 DUP4 SUB DUP2 PUSH0 DUP7 GAS CALL SWAP2 POP POP RETURNDATASIZE DUP1 PUSH0 DUP2 EQ PUSH2 0x389 JUMPI PUSH1 0x40 MLOAD SWAP2 POP PUSH1 0x1F NOT PUSH1 0x3F RETURNDATASIZE ADD AND DUP3 ADD PUSH1 0x40 MSTORE RETURNDATASIZE DUP3 MSTORE RETURNDATASIZE PUSH0 PUSH1 0x20 DUP5 ADD RETURNDATACOPY PUSH2 0x38E JUMP JUMPDEST PUSH1 0x60 SWAP2 POP JUMPDEST POP PUSH1 0x40 MLOAD PUSH4 0x767392B3 PUSH1 0xE0 SHL DUP2 MSTORE SWAP2 SWAP4 POP SWAP2 POP PUSH20 0x0 SWAP1 PUSH4 0x767392B3 SWAP1 PUSH2 0x3CD SWAP1 DUP6 SWAP1 PUSH0 SWAP1 PUSH1 0x4 ADD PUSH2 0x8EE JUMP JUMPDEST PUSH1 0x20 PUSH1 0x40 MLOAD DUP1 DUP4 SUB DUP2 DUP7 GAS DELEGATECALL ISZERO DUP1 ISZERO PUSH2 0x3E8 JUMPI RETURNDATASIZE PUSH0 PUSH0 RETURNDATACOPY RETURNDATASIZE PUSH0 REVERT JUMPDEST POP POP POP POP PUSH1 0x40 MLOAD RETURNDATASIZE PUSH1 0x1F NOT PUSH1 0x1F DUP3 ADD AND DUP3 ADD DUP1 PUSH1 0x40 MSTORE POP DUP2 ADD SWAP1 PUSH2 0x40C SWAP2 SWAP1 PUSH2 0x8B2 JUMP JUMPDEST POP POP POP POP JUMP JUMPDEST PUSH0 SLOAD PUSH1 0x40 MLOAD PUSH4 0x44E3E6AD PUSH1 0xE0 SHL DUP2 MSTORE PUSH1 0x65 PUSH1 0x4 DUP3 ADD MSTORE PUSH1 0x60 PUSH1 0x24 DUP3 ADD MSTORE PUSH1 0xD PUSH1 0x64 DUP3 ADD MSTORE PUSH13 0x1CD958DBDB9914DD1D59195B9D PUSH1 0x9A SHL PUSH1 0x84 DUP3 ADD MSTORE PUSH1 0xB PUSH1 0x44 DUP3 ADD MSTORE PUSH1 0x1 PUSH1 0x1 PUSH1 0xA0 SHL SUB SWAP1 SWAP2 AND SWAP1 PUSH4 0x44E3E6AD SWAP1 PUSH1 0xA4 ADD PUSH1 0x20 PUSH1 0x40 MLOAD DUP1 DUP4 SUB DUP2 PUSH0 DUP8 GAS CALL SWAP3 POP POP POP DUP1 ISZERO PUSH2 0x4A2 JUMPI POP PUSH1 0x40 DUP1 MLOAD PUSH1 0x1F RETURNDATASIZE SWAP1 DUP2 ADD PUSH1 0x1F NOT AND DUP3 ADD SWAP1 SWAP3 MSTORE PUSH2 0x49F SWAP2 DUP2 ADD SWAP1 PUSH2 0x7C5 JUMP JUMPDEST PUSH1 0x1 JUMPDEST PUSH2 0x504 JUMPI PUSH2 0x4AE PUSH2 0x7DC JUMP JUMPDEST DUP1 PUSH4 0x8C379A0 SUB PUSH2 0x1D8 JUMPI POP PUSH2 0x4C2 PUSH2 0x82E JUMP JUMPDEST DUP1 PUSH2 0x4CD JUMPI POP PUSH2 0x1DA JUMP JUMPDEST PUSH1 0x40 MLOAD PUSH4 0x7461658B PUSH1 0xE1 SHL DUP2 MSTORE PUSH20 0x0 SWAP1 PUSH4 0xE8C2CB16 SWAP1 PUSH2 0x195 SWAP1 DUP5 SWAP1 PUSH1 0x4 ADD PUSH2 0x935 JUMP JUMPDEST PUSH1 0x40 DUP1 MLOAD PUSH4 0x39DF137F PUSH1 0xE0 SHL DUP2 MSTORE PUSH0 PUSH1 0x4 DUP3 ADD MSTORE PUSH1 0x24 DUP2 ADD SWAP2 SWAP1 SWAP2 MSTORE PUSH1 0x1C PUSH1 0x44 DUP3 ADD MSTORE PUSH32 0x6D6574686F6420657865637574696F6E2073686F756C64206661696C00000000 PUSH1 0x64 DUP3 ADD MSTORE PUSH20 0x0 SWAP1 PUSH4 0x39DF137F SWAP1 PUSH1 0x84 ADD PUSH2 0x195 JUMP JUMPDEST PUSH1 0x40 MLOAD PUSH2 0x57D SWAP1 PUSH2 0x7B8 JUMP JUMPDEST PUSH1 0x40 MLOAD DUP1 SWAP2 SUB SWAP1 PUSH0 CREATE DUP1 ISZERO DUP1 ISZERO PUSH2 0x596 JUMPI RETURNDATASIZE PUSH0 PUSH0 RETURNDATACOPY RETURNDATASIZE PUSH0 REVERT JUMPDEST POP PUSH0 DUP1 SLOAD PUSH1 0x1 PUSH1 0x1 PUSH1 0xA0 SHL SUB NOT AND PUSH1 0x1 PUSH1 0x1 PUSH1 0xA0 SHL SUB SWAP3 SWAP1 SWAP3 AND SWAP2 SWAP1 SWAP2 OR SWAP1 SSTORE JUMP JUMPDEST PUSH1 0x40 MLOAD PUSH1 0x66 PUSH1 0x24 DUP3 ADD MSTORE PUSH1 0x60 PUSH1 0x44 DUP3 ADD MSTORE PUSH1 0xC PUSH1 0x84 DUP3 ADD MSTORE PUSH12 0x199A5C9CDD14DD1D59195B9D PUSH1 0xA2 SHL PUSH1 0xA4 DUP3 ADD MSTORE PUSH1 0xA PUSH1 0x64 DUP3 ADD MSTORE PUSH0 SWAP1 PUSH1 0xC4 ADD PUSH1 0x40 DUP1 MLOAD PUSH1 0x1F NOT DUP2 DUP5 SUB ADD DUP2 MSTORE SWAP2 DUP2 MSTORE PUSH1 0x20 DUP3 ADD DUP1 MLOAD PUSH1 0x1 PUSH1 0x1 PUSH1 0xE0 SHL SUB AND PUSH4 0x44E3E6AD PUSH1 0xE0 SHL OR SWAP1 MSTORE PUSH0 DUP1 SLOAD SWAP2 MLOAD SWAP3 SWAP4 POP SWAP2 DUP3 SWAP2 PUSH1 0x1 PUSH1 0x1 PUSH1 0xA0 SHL SUB AND SWAP1 PUSH2 0x63B SWAP1 DUP6 SWAP1 PUSH2 0x8D8 JUMP JUMPDEST PUSH0 PUSH1 0x40 MLOAD DUP1 DUP4 SUB DUP2 PUSH0 DUP7 GAS CALL SWAP2 POP POP RETURNDATASIZE DUP1 PUSH0 DUP2 EQ PUSH2 0x674 JUMPI PUSH1 0x40 MLOAD SWAP2 POP PUSH1 0x1F NOT PUSH1 0x3F RETURNDATASIZE ADD AND DUP3 ADD PUSH1 0x40 MSTORE RETURNDATASIZE DUP3 MSTORE RETURNDATASIZE PUSH0 PUSH1 0x20 DUP5 ADD RETURNDATACOPY PUSH2 0x679 JUMP JUMPDEST PUSH1 0x60 SWAP2 POP JUMPDEST POP PUSH1 0x40 MLOAD PUSH4 0x767392B3 PUSH1 0xE0 SHL DUP2 MSTORE SWAP2 SWAP4 POP SWAP2 POP PUSH20 0x0 SWAP1 PUSH4 0x767392B3 SWAP1 PUSH2 0x6B9 SWAP1 DUP6 SWAP1 PUSH1 0x1 SWAP1 PUSH1 0x4 ADD PUSH2 0x8EE JUMP JUMPDEST PUSH1 0x20 PUSH1 0x40 MLOAD DUP1 DUP4 SUB DUP2 DUP7 GAS DELEGATECALL ISZERO DUP1 ISZERO PUSH2 0x6D4 JUMPI RETURNDATASIZE PUSH0 PUSH0 RETURNDATACOPY RETURNDATASIZE PUSH0 REVERT JUMPDEST POP POP POP POP PUSH1 0x40 MLOAD RETURNDATASIZE PUSH1 0x1F NOT PUSH1 0x1F DUP3 ADD AND DUP3 ADD DUP1 PUSH1 0x40 MSTORE POP DUP2 ADD SWAP1 PUSH2 0x6F8 SWAP2 SWAP1 PUSH2 0x8B2 JUMP JUMPDEST POP PUSH0 DUP2 DUP1 PUSH1 0x20 ADD SWAP1 MLOAD DUP2 ADD SWAP1 PUSH2 0x70E SWAP2 SWAP1 PUSH2 0x7C5 JUMP JUMPDEST PUSH1 0x40 MLOAD PUSH4 0x55E6BCB PUSH1 0xE5 SHL DUP2 MSTORE PUSH1 0x4 DUP2 ADD DUP3 SWAP1 MSTORE PUSH1 0x66 PUSH1 0x24 DUP3 ADD MSTORE PUSH1 0x60 PUSH1 0x44 DUP3 ADD MSTORE PUSH1 0x10 PUSH1 0x64 DUP3 ADD MSTORE PUSH16 0x3BB937B733903937B636273AB6B132B9 PUSH1 0x81 SHL PUSH1 0x84 DUP3 ADD MSTORE SWAP1 SWAP2 POP PUSH20 0x0 SWAP1 PUSH4 0xABCD7960 SWAP1 PUSH1 0xA4 ADD PUSH1 0x20 PUSH1 0x40 MLOAD DUP1 DUP4 SUB DUP2 DUP7 GAS DELEGATECALL ISZERO DUP1 ISZERO PUSH2 0x78D JUMPI RETURNDATASIZE PUSH0 PUSH0 RETURNDATACOPY RETURNDATASIZE PUSH0 REVERT JUMPDEST POP POP POP POP PUSH1 0x40 MLOAD RETURNDATASIZE PUSH1 0x1F NOT PUSH1 0x1F DUP3 ADD AND DUP3 ADD DUP1 PUSH1 0x40 MSTORE POP DUP2 ADD SWAP1 PUSH2 0x7B1 SWAP2 SWAP1 PUSH2 0x8B2 JUMP JUMPDEST POP POP POP POP POP JUMP JUMPDEST PUSH2 0x62B DUP1 PUSH2 0x9DF DUP4 CODECOPY ADD SWAP1 JUMP JUMPDEST PUSH0 PUSH1 0x20 DUP3 DUP5 SUB SLT ISZERO PUSH2 0x7D5 JUMPI PUSH0 PUSH0 REVERT JUMPDEST POP MLOAD SWAP2 SWAP1 POP JUMP JUMPDEST PUSH0 PUSH1 0x3 RETURNDATASIZE GT ISZERO PUSH2 0x7F2 JUMPI PUSH1 0x4 PUSH0 PUSH0 RETURNDATACOPY POP PUSH0 MLOAD PUSH1 0xE0 SHR JUMPDEST SWAP1 JUMP JUMPDEST PUSH1 0x1F DUP3 ADD PUSH1 0x1F NOT AND DUP2 ADD PUSH8 0xFFFFFFFFFFFFFFFF DUP2 GT DUP3 DUP3 LT OR ISZERO PUSH2 0x827 JUMPI PUSH4 0x4E487B71 PUSH1 0xE0 SHL PUSH0 MSTORE PUSH1 0x41 PUSH1 0x4 MSTORE PUSH1 0x24 PUSH0 REVERT JUMPDEST PUSH1 0x40 MSTORE POP POP JUMP JUMPDEST PUSH0 PUSH1 0x44 RETURNDATASIZE LT ISZERO PUSH2 0x83B JUMPI SWAP1 JUMP JUMPDEST PUSH1 0x40 MLOAD RETURNDATASIZE PUSH1 0x3 NOT ADD PUSH1 0x4 DUP3 RETURNDATACOPY DUP1 MLOAD RETURNDATASIZE PUSH1 0x24 DUP3 ADD GT PUSH8 0xFFFFFFFFFFFFFFFF DUP3 GT OR ISZERO PUSH2 0x865 JUMPI POP POP SWAP1 JUMP JUMPDEST DUP1 DUP3 ADD DUP1 MLOAD PUSH8 0xFFFFFFFFFFFFFFFF DUP2 GT ISZERO PUSH2 0x881 JUMPI POP POP POP POP SWAP1 JUMP JUMPDEST RETURNDATASIZE DUP5 ADD PUSH1 0x3 NOT ADD DUP3 DUP3 ADD PUSH1 0x20 ADD GT ISZERO PUSH2 0x89B JUMPI POP POP POP POP SWAP1 JUMP JUMPDEST PUSH2 0x8AA PUSH1 0x20 DUP3 DUP6 ADD ADD DUP6 PUSH2 0x7F5 JUMP JUMPDEST POP SWAP4 SWAP3 POP POP POP JUMP JUMPDEST PUSH0 PUSH1 0x20 DUP3 DUP5 SUB SLT ISZERO PUSH2 0x8C2 JUMPI PUSH0 PUSH0 REVERT JUMPDEST DUP2 MLOAD DUP1 ISZERO ISZERO DUP2 EQ PUSH2 0x8D1 JUMPI PUSH0 PUSH0 REVERT JUMPDEST SWAP4 SWAP3 POP POP POP JUMP JUMPDEST PUSH0 DUP3 MLOAD DUP1 PUSH1 0x20 DUP6 ADD DUP5 MCOPY PUSH0 SWAP3 ADD SWAP2 DUP3 MSTORE POP SWAP2 SWAP1 POP JUMP JUMPDEST SWAP2 ISZERO ISZERO DUP3 MSTORE ISZERO ISZERO PUSH1 0x20 DUP3 ADD MSTORE PUSH1 0x60 PUSH1 0x40 DUP3 ADD DUP2 SWAP1 MSTORE PUSH1 0x1E SWAP1 DUP3 ADD MSTORE PUSH32 0x657865637574696F6E2073686F756C64206265207375636365737366756C0000 PUSH1 0x80 DUP3 ADD MSTORE PUSH1 0xA0 ADD SWAP1 JUMP JUMPDEST PUSH1 0x60 DUP2 MSTORE PUSH0 DUP3 MLOAD DUP1 PUSH1 0x60 DUP5 ADD MSTORE DUP1 PUSH1 0x20 DUP6 ADD PUSH1 0x80 DUP6 ADD MCOPY PUSH0 PUSH1 0x80 DUP3 DUP6 ADD ADD MSTORE PUSH1 0x1F NOT PUSH1 0x1F DUP3 ADD AND DUP4 ADD SWAP1 POP PUSH1 0x80 DUP4 DUP3 SUB ADD DUP1 PUSH1 0x20 DUP6 ADD MSTORE PUSH1 0x19 PUSH1 0x80 DUP4 ADD MSTORE PUSH32 0x526F6C6C206E756D626572206E6F7420617661696C61626C6500000000000000 PUSH1 0xA0 DUP4 ADD MSTORE PUSH1 0x40 DUP2 ADD PUSH1 0x40 DUP6 ADD MSTORE POP PUSH1 0x1D PUSH1 0xC0 DUP3 ADD MSTORE PUSH32 0x6661696C6564207769746820756E657870656374656420726561736F6E000000 PUSH1 0xE0 DUP3 ADD MSTORE PUSH2 0x100 DUP2 ADD SWAP2 POP POP SWAP3 SWAP2 POP POP JUMP INVALID PUSH1 0x80 PUSH1 0x40 MSTORE CALLVALUE DUP1 ISZERO PUSH1 0xE JUMPI PUSH0 PUSH0 REVERT JUMPDEST POP PUSH2 0x60F DUP1 PUSH2 0x1C PUSH0 CODECOPY PUSH0 RETURN INVALID PUSH1 0x80 PUSH1 0x40 MSTORE CALLVALUE DUP1 ISZERO PUSH2 0xF JUMPI PUSH0 PUSH0 REVERT JUMPDEST POP PUSH1 0x4 CALLDATASIZE LT PUSH2 0x3F JUMPI PUSH0 CALLDATALOAD PUSH1 0xE0 SHR DUP1 PUSH4 0x44E3E6AD EQ PUSH2 0x43 JUMPI DUP1 PUSH4 0x9AC43876 EQ PUSH2 0x69 JUMPI DUP1 PUSH4 0xF207564E EQ PUSH2 0x89 JUMPI JUMPDEST PUSH0 PUSH0 REVERT JUMPDEST PUSH2 0x56 PUSH2 0x51 CALLDATASIZE PUSH1 0x4 PUSH2 0x331 JUMP JUMPDEST PUSH2 0xAA JUMP JUMPDEST PUSH1 0x40 MLOAD SWAP1 DUP2 MSTORE PUSH1 0x20 ADD JUMPDEST PUSH1 0x40 MLOAD DUP1 SWAP2 SUB SWAP1 RETURN JUMPDEST PUSH2 0x7C PUSH2 0x77 CALLDATASIZE PUSH1 0x4 PUSH2 0x3F7 JUMP JUMPDEST PUSH2 0x1DD JUMP JUMPDEST PUSH1 0x40 MLOAD PUSH2 0x60 SWAP2 SWAP1 PUSH2 0x43C JUMP JUMPDEST PUSH2 0x9C PUSH2 0x97 CALLDATASIZE PUSH1 0x4 PUSH2 0x3F7 JUMP JUMPDEST PUSH2 0x27C JUMP JUMPDEST PUSH1 0x40 MLOAD PUSH2 0x60 SWAP3 SWAP2 SWAP1 PUSH2 0x455 JUMP JUMPDEST PUSH0 PUSH0 DUP3 GT DUP1 ISZERO PUSH2 0xBB JUMPI POP PUSH1 0xC DUP3 GT ISZERO JUMPDEST PUSH2 0xFC JUMPI PUSH1 0x40 MLOAD PUSH3 0x461BCD PUSH1 0xE5 SHL DUP2 MSTORE PUSH1 0x20 PUSH1 0x4 DUP3 ADD MSTORE PUSH1 0xD PUSH1 0x24 DUP3 ADD MSTORE PUSH13 0x696E76616C696420636C617373 PUSH1 0x98 SHL PUSH1 0x44 DUP3 ADD MSTORE PUSH1 0x64 ADD JUMPDEST PUSH1 0x40 MLOAD DUP1 SWAP2 SUB SWAP1 REVERT JUMPDEST PUSH0 DUP5 DUP2 MSTORE PUSH1 0x20 DUP2 SWAP1 MSTORE PUSH1 0x40 SWAP1 KECCAK256 PUSH1 0x1 ADD SLOAD ISZERO PUSH2 0x15A JUMPI PUSH1 0x40 MLOAD PUSH3 0x461BCD PUSH1 0xE5 SHL DUP2 MSTORE PUSH1 0x20 PUSH1 0x4 DUP3 ADD MSTORE PUSH1 0x19 PUSH1 0x24 DUP3 ADD MSTORE PUSH32 0x526F6C6C206E756D626572206E6F7420617661696C61626C6500000000000000 PUSH1 0x44 DUP3 ADD MSTORE PUSH1 0x64 ADD PUSH2 0xF3 JUMP JUMPDEST PUSH1 0x40 DUP1 MLOAD DUP1 DUP3 ADD DUP3 MSTORE DUP5 DUP2 MSTORE PUSH1 0x20 DUP1 DUP3 ADD DUP6 SWAP1 MSTORE PUSH0 DUP8 DUP2 MSTORE SWAP1 DUP2 SWAP1 MSTORE SWAP2 SWAP1 SWAP2 KECCAK256 DUP2 MLOAD DUP3 SWAP2 SWAP1 DUP2 SWAP1 PUSH2 0x18B SWAP1 DUP3 PUSH2 0x4FA JUMP JUMPDEST POP PUSH1 0x20 DUP3 ADD MLOAD DUP2 PUSH1 0x1 ADD SSTORE SWAP1 POP POP PUSH32 0x837102BFA3FA1437554712A20C1C1D67B6689AA3F9739B4FB7CB2D1EAB97A2B9 DUP5 DUP5 TIMESTAMP PUSH1 0x40 MLOAD PUSH2 0x1CC SWAP4 SWAP3 SWAP2 SWAP1 PUSH2 0x5B5 JUMP JUMPDEST PUSH1 0x40 MLOAD DUP1 SWAP2 SUB SWAP1 LOG1 POP SWAP3 SWAP4 SWAP3 POP POP POP JUMP JUMPDEST PUSH0 DUP2 DUP2 MSTORE PUSH1 0x20 DUP2 SWAP1 MSTORE PUSH1 0x40 SWAP1 KECCAK256 DUP1 SLOAD PUSH1 0x60 SWAP2 SWAP1 PUSH2 0x1F9 SWAP1 PUSH2 0x476 JUMP JUMPDEST DUP1 PUSH1 0x1F ADD PUSH1 0x20 DUP1 SWAP2 DIV MUL PUSH1 0x20 ADD PUSH1 0x40 MLOAD SWAP1 DUP2 ADD PUSH1 0x40 MSTORE DUP1 SWAP3 SWAP2 SWAP1 DUP2 DUP2 MSTORE PUSH1 0x20 ADD DUP3 DUP1 SLOAD PUSH2 0x225 SWAP1 PUSH2 0x476 JUMP JUMPDEST DUP1 ISZERO PUSH2 0x270 JUMPI DUP1 PUSH1 0x1F LT PUSH2 0x247 JUMPI PUSH2 0x100 DUP1 DUP4 SLOAD DIV MUL DUP4 MSTORE SWAP2 PUSH1 0x20 ADD SWAP2 PUSH2 0x270 JUMP JUMPDEST DUP3 ADD SWAP2 SWAP1 PUSH0 MSTORE PUSH1 0x20 PUSH0 KECCAK256 SWAP1 JUMPDEST DUP2 SLOAD DUP2 MSTORE SWAP1 PUSH1 0x1 ADD SWAP1 PUSH1 0x20 ADD DUP1 DUP4 GT PUSH2 0x253 JUMPI DUP3 SWAP1 SUB PUSH1 0x1F AND DUP3 ADD SWAP2 JUMPDEST POP POP POP POP POP SWAP1 POP SWAP2 SWAP1 POP JUMP JUMPDEST PUSH0 PUSH1 0x20 DUP2 SWAP1 MSTORE SWAP1 DUP2 MSTORE PUSH1 0x40 SWAP1 KECCAK256 DUP1 SLOAD DUP2 SWAP1 PUSH2 0x296 SWAP1 PUSH2 0x476 JUMP JUMPDEST DUP1 PUSH1 0x1F ADD PUSH1 0x20 DUP1 SWAP2 DIV MUL PUSH1 0x20 ADD PUSH1 0x40 MLOAD SWAP1 DUP2 ADD PUSH1 0x40 MSTORE DUP1 SWAP3 SWAP2 SWAP1 DUP2 DUP2 MSTORE PUSH1 0x20 ADD DUP3 DUP1 SLOAD PUSH2 0x2C2 SWAP1 PUSH2 0x476 JUMP JUMPDEST DUP1 ISZERO PUSH2 0x30D JUMPI DUP1 PUSH1 0x1F LT PUSH2 0x2E4 JUMPI PUSH2 0x100 DUP1 DUP4 SLOAD DIV MUL DUP4 MSTORE SWAP2 PUSH1 0x20 ADD SWAP2 PUSH2 0x30D JUMP JUMPDEST DUP3 ADD SWAP2 SWAP1 PUSH0 MSTORE PUSH1 0x20 PUSH0 KECCAK256 SWAP1 JUMPDEST DUP2 SLOAD DUP2 MSTORE SWAP1 PUSH1 0x1 ADD SWAP1 PUSH1 0x20 ADD DUP1 DUP4 GT PUSH2 0x2F0 JUMPI DUP3 SWAP1 SUB PUSH1 0x1F AND DUP3 ADD SWAP2 JUMPDEST POP POP POP POP POP SWAP1 DUP1 PUSH1 0x1 ADD SLOAD SWAP1 POP DUP3 JUMP JUMPDEST PUSH4 0x4E487B71 PUSH1 0xE0 SHL PUSH0 MSTORE PUSH1 0x41 PUSH1 0x4 MSTORE PUSH1 0x24 PUSH0 REVERT JUMPDEST PUSH0 PUSH0 PUSH0 PUSH1 0x60 DUP5 DUP7 SUB SLT ISZERO PUSH2 0x343 JUMPI PUSH0 PUSH0 REVERT JUMPDEST DUP4 CALLDATALOAD SWAP3 POP PUSH1 0x20 DUP5 ADD CALLDATALOAD PUSH8 0xFFFFFFFFFFFFFFFF DUP2 GT ISZERO PUSH2 0x360 JUMPI PUSH0 PUSH0 REVERT JUMPDEST DUP5 ADD PUSH1 0x1F DUP2 ADD DUP7 SGT PUSH2 0x370 JUMPI PUSH0 PUSH0 REVERT JUMPDEST DUP1 CALLDATALOAD PUSH8 0xFFFFFFFFFFFFFFFF DUP2 GT ISZERO PUSH2 0x38A JUMPI PUSH2 0x38A PUSH2 0x31D JUMP JUMPDEST PUSH1 0x40 MLOAD PUSH1 0x1F DUP3 ADD PUSH1 0x1F NOT SWAP1 DUP2 AND PUSH1 0x3F ADD AND DUP2 ADD PUSH8 0xFFFFFFFFFFFFFFFF DUP2 GT DUP3 DUP3 LT OR ISZERO PUSH2 0x3B9 JUMPI PUSH2 0x3B9 PUSH2 0x31D JUMP JUMPDEST PUSH1 0x40 MSTORE DUP2 DUP2 MSTORE DUP3 DUP3 ADD PUSH1 0x20 ADD DUP9 LT ISZERO PUSH2 0x3D0 JUMPI PUSH0 PUSH0 REVERT JUMPDEST DUP2 PUSH1 0x20 DUP5 ADD PUSH1 0x20 DUP4 ADD CALLDATACOPY PUSH0 SWAP2 DUP2 ADD PUSH1 0x20 ADD SWAP2 SWAP1 SWAP2 MSTORE SWAP4 SWAP7 SWAP4 SWAP6 POP POP POP POP PUSH1 0x40 SWAP2 SWAP1 SWAP2 ADD CALLDATALOAD SWAP1 JUMP JUMPDEST PUSH0 PUSH1 0x20 DUP3 DUP5 SUB SLT ISZERO PUSH2 0x407 JUMPI PUSH0 PUSH0 REVERT JUMPDEST POP CALLDATALOAD SWAP2 SWAP1 POP JUMP JUMPDEST PUSH0 DUP2 MLOAD DUP1 DUP5 MSTORE DUP1 PUSH1 0x20 DUP5 ADD PUSH1 0x20 DUP7 ADD MCOPY PUSH0 PUSH1 0x20 DUP3 DUP7 ADD ADD MSTORE PUSH1 0x20 PUSH1 0x1F NOT PUSH1 0x1F DUP4 ADD AND DUP6 ADD ADD SWAP2 POP POP SWAP3 SWAP2 POP POP JUMP JUMPDEST PUSH1 0x20 DUP2 MSTORE PUSH0 PUSH2 0x44E PUSH1 0x20 DUP4 ADD DUP5 PUSH2 0x40E JUMP JUMPDEST SWAP4 SWAP3 POP POP POP JUMP JUMPDEST PUSH1 0x40 DUP2 MSTORE PUSH0 PUSH2 0x467 PUSH1 0x40 DUP4 ADD DUP6 PUSH2 0x40E JUMP JUMPDEST SWAP1 POP DUP3 PUSH1 0x20 DUP4 ADD MSTORE SWAP4 SWAP3 POP POP POP JUMP JUMPDEST PUSH1 0x1 DUP2 DUP2 SHR SWAP1 DUP3 AND DUP1 PUSH2 0x48A JUMPI PUSH1 0x7F DUP3 AND SWAP2 POP JUMPDEST PUSH1 0x20 DUP3 LT DUP2 SUB PUSH2 0x4A8 JUMPI PUSH4 0x4E487B71 PUSH1 0xE0 SHL PUSH0 MSTORE PUSH1 0x22 PUSH1 0x4 MSTORE PUSH1 0x24 PUSH0 REVERT JUMPDEST POP SWAP2 SWAP1 POP JUMP JUMPDEST PUSH1 0x1F DUP3 GT ISZERO PUSH2 0x4F5 JUMPI DUP1 PUSH0 MSTORE PUSH1 0x20 PUSH0 KECCAK256 PUSH1 0x1F DUP5 ADD PUSH1 0x5 SHR DUP2 ADD PUSH1 0x20 DUP6 LT ISZERO PUSH2 0x4D3 JUMPI POP DUP1 JUMPDEST PUSH1 0x1F DUP5 ADD PUSH1 0x5 SHR DUP3 ADD SWAP2 POP JUMPDEST DUP2 DUP2 LT ISZERO PUSH2 0x4F2 JUMPI PUSH0 DUP2 SSTORE PUSH1 0x1 ADD PUSH2 0x4DF JUMP JUMPDEST POP POP JUMPDEST POP POP POP JUMP JUMPDEST DUP2 MLOAD PUSH8 0xFFFFFFFFFFFFFFFF DUP2 GT ISZERO PUSH2 0x514 JUMPI PUSH2 0x514 PUSH2 0x31D JUMP JUMPDEST PUSH2 0x528 DUP2 PUSH2 0x522 DUP5 SLOAD PUSH2 0x476 JUMP JUMPDEST DUP5 PUSH2 0x4AE JUMP JUMPDEST PUSH1 0x20 PUSH1 0x1F DUP3 GT PUSH1 0x1 DUP2 EQ PUSH2 0x55A JUMPI PUSH0 DUP4 ISZERO PUSH2 0x543 JUMPI POP DUP5 DUP3 ADD MLOAD JUMPDEST PUSH0 NOT PUSH1 0x3 DUP6 SWAP1 SHL SHR NOT AND PUSH1 0x1 DUP5 SWAP1 SHL OR DUP5 SSTORE PUSH2 0x4F2 JUMP JUMPDEST PUSH0 DUP5 DUP2 MSTORE PUSH1 0x20 DUP2 KECCAK256 PUSH1 0x1F NOT DUP6 AND SWAP2 JUMPDEST DUP3 DUP2 LT ISZERO PUSH2 0x589 JUMPI DUP8 DUP6 ADD MLOAD DUP3 SSTORE PUSH1 0x20 SWAP5 DUP6 ADD SWAP5 PUSH1 0x1 SWAP1 SWAP3 ADD SWAP2 ADD PUSH2 0x569 JUMP JUMPDEST POP DUP5 DUP3 LT ISZERO PUSH2 0x5A6 JUMPI DUP7 DUP5 ADD MLOAD PUSH0 NOT PUSH1 0x3 DUP8 SWAP1 SHL PUSH1 0xF8 AND SHR NOT AND DUP2 SSTORE JUMPDEST POP POP POP POP PUSH1 0x1 SWAP1 DUP2 SHL ADD SWAP1 SSTORE POP JUMP JUMPDEST PUSH1 0x60 DUP2 MSTORE PUSH0 PUSH2 0x5C7 PUSH1 0x60 DUP4 ADD DUP7 PUSH2 0x40E JUMP JUMPDEST PUSH1 0x20 DUP4 ADD SWAP5 SWAP1 SWAP5 MSTORE POP PUSH1 0x40 ADD MSTORE SWAP2 SWAP1 POP JUMP INVALID LOG2 PUSH5 0x6970667358 0x22 SLT KECCAK256 0x2D 0xE4 PUSH7 0x7C43A00011ECF7 SUB 0xD0 0xE6 0x2F SIGNEXTEND 0xE6 0xE INVALID DUP14 0xBA 0x27 0xDE MLOAD 0xCE LOG0 BLOCKHASH 0xA9 ISZERO 0xA7 KECCAK256 0xAC 0xE8 PUSH5 0x736F6C6343 STOP ADDMOD SHR STOP CALLER LOG2 PUSH5 0x6970667358 0x22 SLT KECCAK256 EXTCODEHASH JUMP 0xDE DUP12 DUP9 SWAP3 0xA6 KECCAK256 NOT PUSH5 0x89AD0297B6 0xA7 JUMPI PUSH14 0xF94F456DB13DC470E66038D2F6D3 PUSH5 0x736F6C6343 STOP ADDMOD SHR STOP CALLER "
		},
		"gasEstimates": {
			"creation": {
				"codeDepositCost": "831800",
				"executionCost": "862",
				"totalCost": "832662"
			},
			"external": {
				"beforeAll()": "infinite",
				"testAddFailureUsingCall()": "infinite",
				"testAddFailureUsingTryCatch2()": "infinite",
				"testAddSuccessUsingCall()": "infinite",
				"testAddWithErrorTryCatch()": "infinite"
			}
		},
		"methodIdentifiers": {
			"beforeAll()": "7fea0d4b",
			"testAddFailureUsingCall()": "4b91d1f9",
			"testAddFailureUsingTryCatch2()": "6cd56954",
			"testAddSuccessUsingCall()": "8b463768",
			"testAddWithErrorTryCatch()": "01ccaa2c"
		}
	},
	"abi": [
		{
			"inputs": [],
			"name": "beforeAll",
			"outputs": [],
			"stateMutability": "nonpayable",
			"type": "function"
		},
		{
			"inputs": [],
			"name": "testAddFailureUsingCall",
			"outputs": [],
			"stateMutability": "nonpayable",
			"type": "function"
		},
		{
			"inputs": [],
			"name": "testAddFailureUsingTryCatch2",
			"outputs": [],
			"stateMutability": "nonpayable",
			"type": "function"
		},
		{
			"inputs": [],
			"name": "testAddSuccessUsingCall",
			"outputs": [],
			"stateMutability": "nonpayable",
			"type": "function"
		},
		{
			"inputs": [],
			"name": "testAddWithErrorTryCatch",
			"outputs": [],
			"stateMutability": "nonpayable",
			"type": "function"
		}
	]
}