{
	"data": {
		"bytecode": {
			"linkReferences": {},
			"object": "6080604052348015600f57600080fd5b5060b38061001e6000396000f3fe6080604052348015600f57600080fd5b506004361060325760003560e01c80635288d07f146037578063c6272af914603f575b600080fd5b603d605b565b005b6045606b565b6040518082815260200191505060405180910390f35b6000600190505060006003905050565b6000806001905060029050809150509056fea2646970667358221220056eb88a125bb20ba9b794780f6c46289d63d74a12d7f65724b72b2d6c49ac6064736f6c634300060a0033",
			"opcodes": "PUSH1 0x80 PUSH1 0x40 MSTORE CALLVALUE DUP1 ISZERO PUSH1 0xF JUMPI PUSH1 0x0 DUP1 REVERT JUMPDEST POP PUSH1 0xB3 DUP1 PUSH2 0x1E PUSH1 0x0 CODECOPY PUSH1 0x0 RETURN INVALID PUSH1 0x80 PUSH1 0x40 MSTORE CALLVALUE DUP1 ISZERO PUSH1 0xF JUMPI PUSH1 0x0 DUP1 REVERT JUMPDEST POP PUSH1 0x4 CALLDATASIZE LT PUSH1 0x32 JUMPI PUSH1 0x0 CALLDATALOAD PUSH1 0xE0 SHR DUP1 PUSH4 0x5288D07F EQ PUSH1 0x37 JUMPI DUP1 PUSH4 0xC6272AF9 EQ PUSH1 0x3F JUMPI JUMPDEST PUSH1 0x0 DUP1 REVERT JUMPDEST PUSH1 0x3D PUSH1 0x5B JUMP JUMPDEST STOP JUMPDEST PUSH1 0x45 PUSH1 0x6B JUMP JUMPDEST PUSH1 0x40 MLOAD DUP1 DUP3 DUP2 MSTORE PUSH1 0x20 ADD SWAP2 POP POP PUSH1 0x40 MLOAD DUP1 SWAP2 SUB SWAP1 RETURN JUMPDEST PUSH1 0x0 PUSH1 0x1 SWAP1 POP POP PUSH1 0x0 PUSH1 0x3 SWAP1 POP POP JUMP JUMPDEST PUSH1 0x0 DUP1 PUSH1 0x1 SWAP1 POP PUSH1 0x2 SWAP1 POP DUP1 SWAP2 POP POP SWAP1 JUMP INVALID LOG2 PUSH5 0x6970667358 0x22 SLT KECCAK256 SDIV PUSH15 0xB88A125BB20BA9B794780F6C46289D PUSH4 0xD74A12D7 0xF6 JUMPI 0x24 0xB7 0x2B 0x2D PUSH13 0x49AC6064736F6C634300060A00 CALLER "
		},
		"gasEstimates": {
			"creation": {
				"codeDepositCost": "35800",
				"executionCost": "87",
				"totalCost": "35887"
			},
			"external": {
				"minimalScoping()": "148",
				"warnScoping()": "234"
			}
		},
		"methodIdentifiers": {
			"minimalScoping()": "5288d07f",
			"warnScoping()": "c6272af9"
		}
	},
	"abi": [
		{
			"inputs": [],
			"name": "minimalScoping",
			"outputs": [],
			"stateMutability": "pure",
			"type": "function"
		},
		{
			"inputs": [],
			"name": "warnScoping",
			"outputs": [
				{
					"internalType": "uint256",
					"name": "",
					"type": "uint256"
				}
			],
			"stateMutability": "pure",
			"type": "function"
		}
	]
}