{
	"remix_accounts.sol": {
		"TestsAccounts": {
			"abi": [
				{
					"inputs": [
						{
							"internalType": "uint256",
							"name": "index",
							"type": "uint256"
						}
					],
					"name": "getAccount",
					"outputs": [
						{
							"internalType": "address",
							"name": "",
							"type": "address"
						}
					],
					"stateMutability": "pure",
					"type": "function"
				}
			],
			"devdoc": {
				"kind": "dev",
				"methods": {},
				"version": 1
			},
			"evm": {
				"assembly": "    /* \"remix_accounts.sol\":71:1150  library TestsAccounts {... */\n  dataSize(sub_0)\n  dataOffset(sub_0)\n  0x0b\n  dup3\n  dup3\n  dup3\n  codecopy\n  dup1\n  mload\n  0x00\n  byte\n  0x73\n  eq\n  tag_1\n  jumpi\n  mstore(0x00, shl(0xe0, 0x4e487b71))\n  mstore(0x04, 0x00)\n  revert(0x00, 0x24)\ntag_1:\n  mstore(0x00, address)\n  0x73\n  dup2\n  mstore8\n  dup3\n  dup2\n  return\nstop\n\nsub_0: assembly {\n        /* \"remix_accounts.sol\":71:1150  library TestsAccounts {... */\n      eq(address, deployTimeAddress())\n      mstore(0x40, 0x80)\n      jumpi(tag_1, lt(calldatasize, 0x04))\n      shr(0xe0, calldataload(0x00))\n      dup1\n      0xce88b145\n      eq\n      tag_2\n      jumpi\n    tag_1:\n      revert(0x00, 0x00)\n        /* \"remix_accounts.sol\":99:1148  function getAccount(uint index) pure public returns (address) {... */\n    tag_2:\n      tag_3\n      tag_4\n      calldatasize\n      0x04\n      tag_5\n      jump\t// in\n    tag_4:\n      tag_6\n      jump\t// in\n    tag_3:\n      mload(0x40)\n      sub(shl(0xa0, 0x01), 0x01)\n        /* \"#utility.yul\":371:403   */\n      swap1\n      swap2\n      and\n        /* \"#utility.yul\":353:404   */\n      dup2\n      mstore\n        /* \"#utility.yul\":341:343   */\n      0x20\n        /* \"#utility.yul\":326:344   */\n      add\n        /* \"remix_accounts.sol\":99:1148  function getAccount(uint index) pure public returns (address) {... */\n      mload(0x40)\n      dup1\n      swap2\n      sub\n      swap1\n      return\n    tag_6:\n        /* \"remix_accounts.sol\":152:159  address */\n      0x00\n        /* \"remix_accounts.sol\":171:198  address[15] memory accounts */\n      tag_10\n      tag_11\n      jump\t// in\n    tag_10:\n        /* \"remix_accounts.sol\":216:258  0x5B38Da6a701c568545dCfcB03FcB875f56beddC4 */\n      0x5b38da6a701c568545dcfcb03fcb875f56beddc4\n        /* \"remix_accounts.sol\":202:258  accounts[0] = 0x5B38Da6a701c568545dCfcB03FcB875f56beddC4 */\n      dup2\n      mstore\n        /* \"remix_accounts.sol\":277:319  0xAb8483F64d9C6d1EcF9b849Ae677dD3315835cb2 */\n      0xab8483f64d9c6d1ecf9b849ae677dd3315835cb2\n        /* \"remix_accounts.sol\":202:213  accounts[0] */\n      0x20\n        /* \"remix_accounts.sol\":263:274  accounts[1] */\n      dup3\n      add\n        /* \"remix_accounts.sol\":263:319  accounts[1] = 0xAb8483F64d9C6d1EcF9b849Ae677dD3315835cb2 */\n      mstore\n        /* \"remix_accounts.sol\":338:380  0x4B20993Bc481177ec7E8f571ceCaE8A9e22C02db */\n      0x4b20993bc481177ec7e8f571cecae8a9e22c02db\n        /* \"remix_accounts.sol\":324:335  accounts[2] */\n      0x40\n      dup3\n      add\n        /* \"remix_accounts.sol\":324:380  accounts[2] = 0x4B20993Bc481177ec7E8f571ceCaE8A9e22C02db */\n      mstore\n        /* \"remix_accounts.sol\":399:441  0x78731D3Ca6b7E34aC0F824c42a7cC18A495cabaB */\n      0x78731d3ca6b7e34ac0f824c42a7cc18a495cabab\n        /* \"remix_accounts.sol\":385:396  accounts[3] */\n      0x60\n      dup3\n      add\n        /* \"remix_accounts.sol\":385:441  accounts[3] = 0x78731D3Ca6b7E34aC0F824c42a7cC18A495cabaB */\n      mstore\n        /* \"remix_accounts.sol\":460:502  0x617F2E2fD72FD9D5503197092aC168c91465E7f2 */\n      0x617f2e2fd72fd9d5503197092ac168c91465e7f2\n        /* \"remix_accounts.sol\":446:457  accounts[4] */\n      0x80\n      dup3\n      add\n        /* \"remix_accounts.sol\":446:502  accounts[4] = 0x617F2E2fD72FD9D5503197092aC168c91465E7f2 */\n      mstore\n        /* \"remix_accounts.sol\":521:563  0x17F6AD8Ef982297579C203069C1DbfFE4348c372 */\n      0x17f6ad8ef982297579c203069c1dbffe4348c372\n        /* \"remix_accounts.sol\":507:518  accounts[5] */\n      0xa0\n      dup3\n      add\n        /* \"remix_accounts.sol\":507:563  accounts[5] = 0x17F6AD8Ef982297579C203069C1DbfFE4348c372 */\n      mstore\n        /* \"remix_accounts.sol\":582:624  0x5c6B0f7Bf3E7ce046039Bd8FABdfD3f9F5021678 */\n      0x5c6b0f7bf3e7ce046039bd8fabdfd3f9f5021678\n        /* \"remix_accounts.sol\":568:579  accounts[6] */\n      0xc0\n      dup3\n      add\n        /* \"remix_accounts.sol\":568:624  accounts[6] = 0x5c6B0f7Bf3E7ce046039Bd8FABdfD3f9F5021678 */\n      mstore\n        /* \"remix_accounts.sol\":643:685  0x03C6FcED478cBbC9a4FAB34eF9f40767739D1Ff7 */\n      0x03c6fced478cbbc9a4fab34ef9f40767739d1ff7\n        /* \"remix_accounts.sol\":629:640  accounts[7] */\n      0xe0\n      dup3\n      add\n        /* \"remix_accounts.sol\":629:685  accounts[7] = 0x03C6FcED478cBbC9a4FAB34eF9f40767739D1Ff7 */\n      mstore\n        /* \"remix_accounts.sol\":704:746  0x1aE0EA34a72D944a8C7603FfB3eC30a6669E454C */\n      0x1ae0ea34a72d944a8c7603ffb3ec30a6669e454c\n        /* \"remix_accounts.sol\":690:701  accounts[8] */\n      0x0100\n      dup3\n      add\n        /* \"remix_accounts.sol\":690:746  accounts[8] = 0x1aE0EA34a72D944a8C7603FfB3eC30a6669E454C */\n      mstore\n        /* \"remix_accounts.sol\":765:807  0x0A098Eda01Ce92ff4A4CCb7A4fFFb5A43EBC70DC */\n      0x0a098eda01ce92ff4a4ccb7a4fffb5a43ebc70dc\n        /* \"remix_accounts.sol\":751:762  accounts[9] */\n      0x0120\n      dup3\n      add\n        /* \"remix_accounts.sol\":751:807  accounts[9] = 0x0A098Eda01Ce92ff4A4CCb7A4fFFb5A43EBC70DC */\n      mstore\n        /* \"remix_accounts.sol\":827:869  0xCA35b7d915458EF540aDe6068dFe2F44E8fa733c */\n      0xca35b7d915458ef540ade6068dfe2f44e8fa733c\n        /* \"remix_accounts.sol\":812:824  accounts[10] */\n      0x0140\n      dup3\n      add\n        /* \"remix_accounts.sol\":812:869  accounts[10] = 0xCA35b7d915458EF540aDe6068dFe2F44E8fa733c */\n      mstore\n        /* \"remix_accounts.sol\":889:931  0x14723A09ACff6D2A60DcdF7aA4AFf308FDDC160C */\n      0x14723a09acff6d2a60dcdf7aa4aff308fddc160c\n        /* \"remix_accounts.sol\":874:886  accounts[11] */\n      0x0160\n      dup3\n      add\n        /* \"remix_accounts.sol\":874:931  accounts[11] = 0x14723A09ACff6D2A60DcdF7aA4AFf308FDDC160C */\n      mstore\n        /* \"remix_accounts.sol\":951:993  0x4B0897b0513fdC7C541B6d9D7E929C4e5364D2dB */\n      0x4b0897b0513fdc7c541b6d9d7e929c4e5364d2db\n        /* \"remix_accounts.sol\":936:948  accounts[12] */\n      0x0180\n      dup3\n      add\n        /* \"remix_accounts.sol\":936:993  accounts[12] = 0x4B0897b0513fdC7C541B6d9D7E929C4e5364D2dB */\n      mstore\n        /* \"remix_accounts.sol\":1013:1055  0x583031D1113aD414F02576BD6afaBfb302140225 */\n      0x583031d1113ad414f02576bd6afabfb302140225\n        /* \"remix_accounts.sol\":998:1010  accounts[13] */\n      0x01a0\n      dup3\n      add\n        /* \"remix_accounts.sol\":998:1055  accounts[13] = 0x583031D1113aD414F02576BD6afaBfb302140225 */\n      mstore\n        /* \"remix_accounts.sol\":1075:1117  0xdD870fA1b7C4700F2BD7f44238821C26f7392148 */\n      0xdd870fa1b7c4700f2bd7f44238821c26f7392148\n        /* \"remix_accounts.sol\":1060:1072  accounts[14] */\n      0x01c0\n      dup3\n      add\n        /* \"remix_accounts.sol\":1060:1117  accounts[14] = 0xdD870fA1b7C4700F2BD7f44238821C26f7392148 */\n      mstore\n        /* \"remix_accounts.sol\":202:210  accounts */\n      dup1\n        /* \"remix_accounts.sol\":1135:1140  index */\n      dup4\n        /* \"remix_accounts.sol\":1126:1141  accounts[index] */\n      0x0f\n      dup2\n      lt\n      tag_44\n      jumpi\n      tag_44\n      tag_14\n      jump\t// in\n    tag_44:\n      0x20\n      mul\n      add\n      mload\n      swap4\n        /* \"remix_accounts.sol\":99:1148  function getAccount(uint index) pure public returns (address) {... */\n      swap3\n      pop\n      pop\n      pop\n      jump\t// out\n    tag_11:\n      mload(0x40)\n      dup1\n      0x01e0\n      add\n      0x40\n      mstore\n      dup1\n      0x0f\n      swap1\n      0x20\n      dup3\n      mul\n      dup1\n      calldatasize\n      dup4\n      calldatacopy\n      pop\n      swap2\n      swap3\n      swap2\n      pop\n      pop\n      jump\t// out\n        /* \"#utility.yul\":14:194   */\n    tag_5:\n        /* \"#utility.yul\":73:79   */\n      0x00\n        /* \"#utility.yul\":126:128   */\n      0x20\n        /* \"#utility.yul\":114:123   */\n      dup3\n        /* \"#utility.yul\":105:112   */\n      dup5\n        /* \"#utility.yul\":101:124   */\n      sub\n        /* \"#utility.yul\":97:129   */\n      slt\n        /* \"#utility.yul\":94:146   */\n      iszero\n      tag_47\n      jumpi\n        /* \"#utility.yul\":142:143   */\n      0x00\n        /* \"#utility.yul\":139:140   */\n      0x00\n        /* \"#utility.yul\":132:144   */\n      revert\n        /* \"#utility.yul\":94:146   */\n    tag_47:\n      pop\n        /* \"#utility.yul\":165:188   */\n      calldataload\n      swap2\n        /* \"#utility.yul\":14:194   */\n      swap1\n      pop\n      jump\t// out\n        /* \"#utility.yul\":415:542   */\n    tag_14:\n        /* \"#utility.yul\":476:486   */\n      0x4e487b71\n        /* \"#utility.yul\":471:474   */\n      0xe0\n        /* \"#utility.yul\":467:487   */\n      shl\n        /* \"#utility.yul\":464:465   */\n      0x00\n        /* \"#utility.yul\":457:488   */\n      mstore\n        /* \"#utility.yul\":507:511   */\n      0x32\n        /* \"#utility.yul\":504:505   */\n      0x04\n        /* \"#utility.yul\":497:512   */\n      mstore\n        /* \"#utility.yul\":531:535   */\n      0x24\n        /* \"#utility.yul\":528:529   */\n      0x00\n        /* \"#utility.yul\":521:536   */\n      revert\n\n    auxdata: 0xa26469706673582212206a8f9c392e4c386f42993e6353188a923308272d0f8a925107069ceb5ccb234064736f6c634300081c0033\n}\n",
				"bytecode": {
					"linkReferences": {},
					"object": "610298610034600b8282823980515f1a607314602857634e487b7160e01b5f525f60045260245ffd5b305f52607381538281f3fe7300000000000000000000000000000000000000003014608060405260043610610034575f3560e01c8063ce88b14514610038575b5f5ffd5b61004b610046366004610237565b610067565b6040516001600160a01b03909116815260200160405180910390f35b5f610070610218565b735b38da6a701c568545dcfcb03fcb875f56beddc4815273ab8483f64d9c6d1ecf9b849ae677dd3315835cb26020820152734b20993bc481177ec7e8f571cecae8a9e22c02db60408201527378731d3ca6b7e34ac0f824c42a7cc18a495cabab606082015273617f2e2fd72fd9d5503197092ac168c91465e7f260808201527317f6ad8ef982297579c203069c1dbffe4348c37260a0820152735c6b0f7bf3e7ce046039bd8fabdfd3f9f502167860c08201527303c6fced478cbbc9a4fab34ef9f40767739d1ff760e0820152731ae0ea34a72d944a8c7603ffb3ec30a6669e454c610100820152730a098eda01ce92ff4a4ccb7a4fffb5a43ebc70dc61012082015273ca35b7d915458ef540ade6068dfe2f44e8fa733c6101408201527314723a09acff6d2a60dcdf7aa4aff308fddc160c610160820152734b0897b0513fdc7c541b6d9d7e929c4e5364d2db61018082015273583031d1113ad414f02576bd6afabfb3021402256101a082015273dd870fa1b7c4700f2bd7f44238821c26f73921486101c08201528083600f811061020c5761020c61024e565b60200201519392505050565b604051806101e00160405280600f906020820280368337509192915050565b5f60208284031215610247575f5ffd5b5035919050565b634e487b7160e01b5f52603260045260245ffdfea26469706673582212206a8f9c392e4c386f42993e6353188a923308272d0f8a925107069ceb5ccb234064736f6c634300081c0033",
					"opcodes": "PUSH2 0x298 PUSH2 0x34 PUSH1 0xB DUP3 DUP3 DUP3 CODECOPY DUP1 MLOAD PUSH0 BYTE PUSH1 0x73 EQ PUSH1 0x28 JUMPI PUSH4 0x4E487B71 PUSH1 0xE0 SHL PUSH0 MSTORE PUSH0 PUSH1 0x4 MSTORE PUSH1 0x24 PUSH0 REVERT JUMPDEST ADDRESS PUSH0 MSTORE PUSH1 0x73 DUP2 MSTORE8 DUP3 DUP2 RETURN INVALID PUSH20 0x0 ADDRESS EQ PUSH1 0x80 PUSH1 0x40 MSTORE PUSH1 0x4 CALLDATASIZE LT PUSH2 0x34 JUMPI PUSH0 CALLDATALOAD PUSH1 0xE0 SHR DUP1 PUSH4 0xCE88B145 EQ PUSH2 0x38 JUMPI JUMPDEST PUSH0 PUSH0 REVERT JUMPDEST PUSH2 0x4B PUSH2 0x46 CALLDATASIZE PUSH1 0x4 PUSH2 0x237 JUMP JUMPDEST PUSH2 0x67 JUMP JUMPDEST PUSH1 0x40 MLOAD PUSH1 0x1 PUSH1 0x1 PUSH1 0xA0 SHL SUB SWAP1 SWAP2 AND DUP2 MSTORE PUSH1 0x20 ADD PUSH1 0x40 MLOAD DUP1 SWAP2 SUB SWAP1 RETURN JUMPDEST PUSH0 PUSH2 0x70 PUSH2 0x218 JUMP JUMPDEST PUSH20 0x5B38DA6A701C568545DCFCB03FCB875F56BEDDC4 DUP2 MSTORE PUSH20 0xAB8483F64D9C6D1ECF9B849AE677DD3315835CB2 PUSH1 0x20 DUP3 ADD MSTORE PUSH20 0x4B20993BC481177EC7E8F571CECAE8A9E22C02DB PUSH1 0x40 DUP3 ADD MSTORE PUSH20 0x78731D3CA6B7E34AC0F824C42A7CC18A495CABAB PUSH1 0x60 DUP3 ADD MSTORE PUSH20 0x617F2E2FD72FD9D5503197092AC168C91465E7F2 PUSH1 0x80 DUP3 ADD MSTORE PUSH20 0x17F6AD8EF982297579C203069C1DBFFE4348C372 PUSH1 0xA0 DUP3 ADD MSTORE PUSH20 0x5C6B0F7BF3E7CE046039BD8FABDFD3F9F5021678 PUSH1 0xC0 DUP3 ADD MSTORE PUSH20 0x3C6FCED478CBBC9A4FAB34EF9F40767739D1FF7 PUSH1 0xE0 DUP3 ADD MSTORE PUSH20 0x1AE0EA34A72D944A8C7603FFB3EC30A6669E454C PUSH2 0x100 DUP3 ADD MSTORE PUSH20 0xA098EDA01CE92FF4A4CCB7A4FFFB5A43EBC70DC PUSH2 0x120 DUP3 ADD MSTORE PUSH20 0xCA35B7D915458EF540ADE6068DFE2F44E8FA733C PUSH2 0x140 DUP3 ADD MSTORE PUSH20 0x14723A09ACFF6D2A60DCDF7AA4AFF308FDDC160C PUSH2 0x160 DUP3 ADD MSTORE PUSH20 0x4B0897B0513FDC7C541B6D9D7E929C4E5364D2DB PUSH2 0x180 DUP3 ADD MSTORE PUSH20 0x583031D1113AD414F02576BD6AFABFB302140225 PUSH2 0x1A0 DUP3 ADD MSTORE PUSH20 0xDD870FA1B7C4700F2BD7F44238821C26F7392148 PUSH2 0x1C0 DUP3 ADD MSTORE DUP1 DUP4 PUSH1 0xF DUP2 LT PUSH2 0x20C JUMPI PUSH2 0x20C PUSH2 0x24E JUMP JUMPDEST PUSH1 0x20 MUL ADD MLOAD SWAP4 SWAP3 POP POP POP JUMP JUMPDEST PUSH1 0x40 MLOAD DUP1 PUSH2 0x1E0 ADD PUSH1 0x40 MSTORE DUP1 PUSH1 0xF SWAP1 PUSH1 0x20 DUP3 MUL DUP1 CALLDATASIZE DUP4 CALLDATACOPY POP SWAP2 SWAP3 SWAP2 POP POP JUMP JUMPDEST PUSH0 PUSH1 0x20 DUP3 DUP5 SUB SLT ISZERO PUSH2 0x247 JUMPI PUSH0 PUSH0 REVERT JUMPDEST POP CALLDATALOAD SWAP2 SWAP1 POP JUMP JUMPDEST PUSH4 0x4E487B71 PUSH1 0xE0 SHL PUSH0 MSTORE PUSH1 0x32 PUSH1 0x4 MSTORE PUSH1 0x24 PUSH0 REVERT INVALID LOG2 PUSH5 0x6970667358 0x22 SLT KECCAK256 PUSH11 0x8F9C392E4C386F42993E63 MSTORE8 XOR DUP11 SWAP3 CALLER ADDMOD 0x27 0x2D 0xF DUP11 SWAP3 MLOAD SMOD MOD SWAP13 0xEB TLOAD 0xCB 0x23 BLOCKHASH PUSH5 0x736F6C6343 STOP ADDMOD SHR STOP CALLER "
				},
				"gasEstimates": {
					"creation": {
						"codeDepositCost": "132800",
						"executionCost": "207",
						"totalCost": "133007"
					},
					"external": {
						"getAccount(uint256)": "infinite"
					}
				},
				"methodIdentifiers": {
					"getAccount(uint256)": "ce88b145"
				}
			},
			"storageLayout": {
				"storage": [],
				"types": null
			},
			"userdoc": {
				"kind": "user",
				"methods": {},
				"version": 1
			}
		}
	}
}